:10000000D5EF04F00000000000EF00F00000000059
:0A0010000000000000000000F3D71C
:06001C00000000001200CC
:100022000F0E0C6E470E0D6E0D2EFED70C2EFCD74A
:06003200000000001200B6
:0A003800210E0D6E0D2EFED71200F2
:080042000AAE029E000E12003E
:10004A00000172BF02D0839E01D0838E72BD02D09E
:10005A00839C01D0838C72BB02D0839A01D0838A9D
:10006A0072B902D0839801D083884DB002D08484BB
:10007A0001D084948482CDDF849272B702D0839EA9
:10008A0001D0838E72B502D0839C01D0838C72B367
:10009A0002D0839A01D0838A72B102D0839801D0A8
:1000AA0083884DB002D0848401D084948482B1DFE5
:0E00BA0084924DA002D0B0DF01D0B9DF120059
:0E00C800026A016A006A086A036A000E1200EA
:1000D6000B840BAE76EF00F0010E036E026A016A26
:0A00E600006A0A360232FF0E120013
:0C00F0000E0E0D6E0D2EFED7000012004B
:1000FC000C6A0E6A0250D8A497EF00F001C002F00F
:10010C0000C001F0006A0E860250D8A497EF00F0F0
:10011C0001C002F0016A0E960E880250D8B4A9EF05
:10012C0000F00E50035ED8A4D8A0AEEF00F0D8902B
:10013C0002BEB3EF00F0003601360236032E9EEFFE
:10014C0000F0AEEF00F0010E0C6EB8DFB6EF00F071
:10015C00020E0C6EBADFB6EF00F0040E0C6E6BDF05
:02016C0012007F
:10016E00086A096A100E0C6E0134083609360450FE
:10017E00085E0550D8A0053C095ED8B007D00450E3
:10018E0008260550D8B0053C0926D8900036013611
:06019E000C2EEAD712004E
:1001A40010D0800E00016F6F1AD0C00E6F6F17D081
:1001B400940E6F6F14D0D40E6F6F11D0800E6F6FCA
:1001C4000ED000016F51010AECE06F51020AEDE01C
:1001D4006F51030AEDE06F51040AEDE0EFD77005AB
:1001E400006E6F51002600C06FF04D8000C072F0A9
:0E01F4002ADF4D9071C072F026DF4D801200A0
:10020200020E0C6E490E0D6E0D2EFED70C2EFCD773
:06021200000000001200D4
:0C0218004D906FC072F015DF4D80120099
:100224000B820BAE1CEF01F00368026801680068E2
:080234000A360232FF0E12002F
:08023C000B6A0B86FF0E120095
:100244000B800BAE2EEF01F0026A0AAEFF0E026EB7
:0C025400016E006E0A360232FF0E12002E
:1002600010D0800E0001696F1AD0C00E696F17D0D0
:10027000940E696F14D0D40E696F11D0800E696F1F
:100280000ED000016951010AECE06951020AEDE06B
:100290006951030AEDE06951040AEDE0EFD76A0500
:1002A000006E6951002600C069F000C072F0CDDE1A
:1002B0004D90606B60516B25E96E000E6C21EA6E0B
:1002C000EE520BE060516B25E96E000E6C21EA6E78
:0E02D000EECF6FF0A1DF602BEDD74D80120056
:1002DE00600E0001726FB2DE606B6051070811E3B1
:1002EE00260E6025F66E0F0EF76E000EF722000E2C
:1002FE00F86E000EF8220900F5CF6FF086DF602B46
:10030E00ECD7020E726F9ADE69C06FF06AC070F0A1
:08031E00040E716F40DF1200B4
:10032600780E0001726F8EDE606B6051070811E374
:10033600560E6025F66E0F0EF76E000EF722000EB3
:10034600F86E000EF8220900F5CF6FF062DF602B21
:10035600ECD7020E726F76DE69C06FF06AC070F07D
:08036600070E716F1CDF12008D
:10036E00969296949598959A959C959E849284943F
:10037E00839E839C839A83984DDE4CDE4BDE838A6C
:10038E008388848244DE849245DE848240DE8492B9
:10039E0041DE84823CDE84923DDE8398848237DEA9
:1003AE00849238DE848233DE8492839A838E8482B2
:1003BE002EDE84922FDE839E8388848228DE8492B2
:1003CE008398848224DE849225DE848220DE8492C9
:1003DE00838884821CDE84921DDE8398848217DEDD
:1003EE008492838E838C838A8388848210DE8492A7
:0603FE0011DE4D8012002B
:10040400400E0001726F1FDE606B6051070811E33C
:100414002E0E6025F66E0F0EF76E000EF722000EFC
:10042400F86E000EF8220900F5CF6FF0F3DE602BB2
:10043400ECD7020E726F07DE69C06FF06AC070F00D
:06044400716BAEDE120038
:10044A00480E0001726FFCDD606B6051070811E312
:10045A005E0E6025F66E0F0EF76E000EF722000E86
:10046A00F86E000EF8220900F5CF6FF0D0DE602B8F
:10047A00ECD7020E726FE4DD69C06FF06AC070F0EB
:08048A00010E716F8ADE120001
:100492000900F5CFE6FF0006FBE10106F9E11200D3
:1004A2000B6A0350D8B497EF02F002500A6E028E24
:1004B2008E0E035E03AE9BEF02F0036C080E035C2C
:1004C200D8A076EF02F0036E013602C001F0026A94
:1004D200080E035CD8A076EF02F0036E0136016AC3
:1004E2000350D8A4D89080EF02F00350D8B480EF24
:1004F20002F0D89002320132032E7AEF02F00BBCE6
:1005020001A08DEF02F0D8A08DEF02F0012AD8B43D
:10051200022A02BEAAEF02F00AAEAFEF02F0021EFA
:10052200011E012AD8B4022AAFEF02F0026A016A60
:10053200AFEF02F00B800BAEB3EF02F0026A0AAE2D
:10054200B3EF02F0FF0E026E016E0A360232B3EF13
:1005520002F0010E0C6E75DEB5EF02F0000E0C6EAD
:10056200B5EF02F0FF0E0C6E0150006E0250016EEC
:02057200120075
:100574000450000A12E10550000A0FE10650000A77
:100584000CE10750000A09E1FF0E006EFF0E016E38
:100594007F0E026EFF0E036EA4D0086A096A07502C
:1005A400D8B465EF03F00350D8B469EF03F00250F8
:1005B40006180A6E028E068E0E6A02C008F001C08A
:1005C4000CF000C00DF004500D5E0550D8A0053CA1
:1005D4000C5E0650D8A0063C085E086A0C6A0D6AD8
:1005E400D8A0FCEF02F0D890023201320032083277
:1005F400010E0E6E0750035ED8A009EF03F07E0EC5
:100604000E240326D8B06DEF03F00FEF03F07E0E37
:100614000E240326D8A071EF03F0180E0B6E0D36CE
:100624000C3608360036013602360E360450005EAB
:100634000550D8A0053C015E0650D8A0063C025ED9
:1006440006340E120EA02AEF03F00D8035EF03F0EE
:10065400045000260550D8B0053C01260650D8B0F9
:10066400062802260D900B2E11EF03F05BEF03F02A
:10067400D8900036013602360E360450005E05501E
:10068400D8A0053C015E0650D8A0063C025E0634A4
:100694000E10010B0D26D8B00C2AD8B4082AD8A401
:1006A4005BEF03F008320C320D32032AD8B46DEF3D
:1006B40003F00AAE089E0850026E0C50016E0D50F5
:1006C400006E73EF03F0010EB7DD73EF03F0020E5B
:1006D400F9DC73EF03F0040EA3DD73EF03F0080EEF
:0406E400F8DC12002C
:1006E8000050086E0150006E016A026A036A0B6AC4
:1006F8000C6A960E036E0A6A00C001F008C000F08A
:08070800086A026AF7DC120026
:10071000700E0001726F99DC606B6051070811E385
:10072000460E6025F66E0F0EF76E000EF722000ED5
:10073000F86E000EF8220900F5CF6FF06DDD602B2A
:10074000ECD7020E726F81DC69C06FF06AC070F086
:08075000060E716F27DD120097
:1007580000016E6B6BC001F0010E006E015004E0E9
:1007680000360090FF0FFBD700C060F069C0E9FFBA
:100778006AC0EAFF0050EE14016E0152010ED8A4BF
:10078800000E006E6D51001A18E06C51000804E26A
:1007980034DD33DD6C07F9D769C0E9FF6AC0EAFFC9
:1007A8006051EE14016E0152010ED8A4000E006EC5
:1007B8006D51001A02E0FF0E6E6F6EC000F012005D
:1007C8000001606B60516925E96E000E6A21EA6ECE
:1007D800EE520BE060516925E96E000E6A21EA6E5F
:0C07E800EECF6FF015DD602BEDD7120096
:1007F4000001606B050E605D0AE260516B25E16EDD
:10080400000E6C21E26E200EE66E602BF3D7605171
:100814006B25E16E000E6C21E26EE66A60076051A2
:100824006B256D6F000E6C216E6F0A0E046E000E48
:10083400056E69C000F06AC001F097DC08C000F0E2
:1008440009C001F0300E00266DC0E1FF6EC0E2FF6A
:1008540000C0E6FF0A0E046E000E056E69C000F0CB
:100864006AC001F082DC00C069F001C06AF0000EC9
:10087400011802E1000E001801E102D06007CFD791
:02088400120060
:10088600C26A211C006E0050C116070EC012C08E2F
:1008960060C000F000360090003600900050C21292
:1008A600C28023DCC282C2A201D0FDD7C4CF01F030
:0E08B600006AC3500012000E0112C290120020
:1008C400580E0001726F25EC00F0606B6051070850
:1008D40011E33E0E6025F66E0F0EF76E000EF72242
:1008E400000EF86E000EF8220900F5CF6FF092DCCE
:1008F400602BECD7020E726F25EC00F069C06FF02C
:0C0904006AC070F0030E716F4BDC120033
:10091000680E0001726F25EC00F0606B60510708F3
:1009200011E3360E6025F66E0F0EF76E000EF722FD
:10093000000EF86E000EF8220900F5CF6FF06CDCA7
:10094000602BECD7020E726F25EC00F069C06FF0DF
:0C0950006AC070F0050E716F25DC12000B
:10095C00500E0001726F25EC00F0606B60510708BF
:10096C0011E34E0E6025F66E0F0EF76E000EF72299
:10097C00000EF86E000EF8220900F5CF6FF046DC81
:10098C00602BECD7020E726F25EC00F069C06FF093
:0E099C006AC070F0020E716FD2EC00F0120013
:1009AA00B3EC07F05A6A5B6A5C6A5D6A5E6A5F6A00
:1009BA000001616B626B636B646B656B666B676B83
:1009CA00686BD0DC0C0E726F25EC00F0956A946AA5
:1009DA00F70ED66EC20ED76E860ED56EF294836A65
:1009EA00010E696F020E6A6F08DD010E696F060E4D
:1009FA006A6F94DC010E696F070E6A6F8FDC010E55
:100A0A00696F080E6A6F8ADC010E696F090E6A6FD8
:100A1A0085DC010E696F0A0E6A6F80DC010E696F50
:100A2A000B0E6A6F7BDC010E696F0C0E6A6F76DC47
:100A3A00010E696F0F0E6A6F71DC010E696F100E7D
:100A4A006A6F6CDC020E696F010E6A6F36DF020E86
:100A5A00696F020E6A6FF4DC020E696F030E6A6F29
:100A6A0078DF020E696F050E6A6FEADC020E696FA3
:100A7A00060E6A6FE5DC020E696F070E6A6F43DEC7
:100A8A00020E696F080E6A6F3EDE020E696F090E6A
:100A9A006A6F39DE020E696F0A0E6A6F34DE020E61
:100AAA00696F0B0E6A6F2FDE020E696F0C0E6A6F8A
:100ABA002ADE020E696F0F0E6A6FC2DC020E696FC0
:100ACA00100E6A6FBDDC030E696FFE0E6A6FB8DC2A
:100ADA00030E696FFF0E6A6F3CDF030E696FFD0E2E
:100AEA006A6FEBDE030E696F010E6A6FA9DC030EF3
:100AFA00696F020E6A6FA4DC030E696F040E6A6FD7
:100B0A009FDC030E696F050E6A6F9ADC030E696F2C
:100B1A00060E6A6F95DC030E696F070E6A6F90DC2A
:100B2A00030E696F080E6A6F8BDC030E696F0B0E7A
:100B3A006A6F86DC030E696F0C0E6A6F81DC040E25
:100B4A00696FFD0E6A6F6FEC01F0040E696FFE0E9D
:100B5A006A6FD9DD040E696FFF0E6A6FD4DE040E68
:100B6A00696F010E6A6FCFDD040E696F020E6A6F3C
:100B7A00CADD040E696F040E6A6FC5DD040E696F63
:100B8A00050E6A6FC0DD040E696F0B0E6A6FBBDD5E
:100B9A00040E696F0C0E6A6FB6DDF2A411D0F70E5F
:100BAA00D66EC20ED76EF294654B662B000E66198E
:100BBA0002E1050E651904E1010E726F25EC00F0E1
:100BCA00810E696F0F0E6A6F6B6B010E6C6F6D6B26
:100BDA00BEDD0052D8B4D4D0674B682B800E006EAD
:100BEA00800E6219005C02E16151FF0816E361C0E0
:100BFA0083FF613761916237614B622B060E0B6E80
:100C0A00130E0C6EAD0E0D6E0D2EFED70C2EFCD7EC
:100C1A000B2EFAD700000000E1D70001000E681978
:100C2A0002E1010E6719D8A4ABD0936A926A806A6E
:100C3A00FF0E926E956A946A0C0EC16E606B1EDE90
:100C4A004EDD140E046EAE0E056E230E066E820E77
:100C5A00076E8BDC21DC00C05AF001C05BF001504A
:100C6A005F1802E15E500018D8B489D0010E000165
:100C7A00696F010E6A6F2F0E6B6F000E6C6F30EC8E
:100C8A0001F0020E696F010E6A6F3F0E6B6F000E64
:100C9A006C6F30EC01F05AC069F05BC06AF04E0E1E
:100CAA006B6F000E6C6FA1DD020E696F0A0E6A6F20
:100CBA004E0E6B6F000E6C6F30EC01F04B0E696FCD
:100CCA00000E6A6F7CDD030E696FFD0E6A6F220EDD
:100CDA006B6F000E6C6F30EC01F0020E606FCEDDB0
:100CEA0000C002F001C003F003320232039E02C0C8
:100CFA005CF003C05DF002C069F003C06AF0540EF4
:100D0A0000016B6F000E6C6F70DD030E696F070ECA
:100D1A006A6F540E6B6F000E6C6F30EC01F0800E30
:100D2A005B18006E800E005C02E1460E5A5C1AE304
:100D3A00200E826E000E5B1802E1640E5A1811E151
:100D4A00260E826E0B0E0B6E260E0C6E5D0E0D6E4F
:100D5A000D2EFED70C2EFCD70B2EFAD70000000062
:100D6A00826A01D0829A800E5D18006E800E005C45
:100D7A0002E1230E5C5C02E3828401D082944DD7A7
:100D8A000001810E696F0F0E6A6F010E6B6F010E03
:100D9A006C6F6D6BDCDC005223E0010E726F25EC88
:100DAA0000F0010E696F030E6A6F150E6B6F000E6D
:100DBA006C6F30EC01F0FF0E936E926A956A200E0A
:100DCA00806E634B642B020E0B6E040E0C6EBA0E11
:100DDA000D6E0D2EFED70C2EFCD70B2EFAD7000067
:100DEA00000E641902E1010E63190FE13F0E836ED2
:100DFA00020E0B6E040E0C6EBA0E0D6E0D2EFED781
:100E0A000C2EFCD70B2EFAD70000000E641902E153
:100E1A00020E63190FE1060E836E020E0B6E040EAC
:100E2A000C6EBA0E0D6E0D2EFED70C2EFCD70B2EA5
:100E3A00FAD70000000E641902E1030E63190FE1EC
:100E4A005B0E836E020E0B6E040E0C6EBA0E0D6EE6
:100E5A000D2EFED70C2EFCD70B2EFAD70000000E53
:100E6A00641902E1040E63190FE14F0E836E020E3C
:100E7A000B6E040E0C6EBA0E0D6E0D2EFED70C2ED6
:100E8A00FCD70B2EFAD70000000E641902E1050EFA
:100E9A0063190FE1660E836E020E0B6E040E0C6E62
:100EAA00BA0E0D6E0D2EFED70C2EFCD70B2EFAD7CE
:100EBA000000000E641902E1060E631911E16D0EBD
:100ECA00836E020E0B6E040E0C6EBA0E0D6E0D2E94
:100EDA00FED70C2EFCD70B2EFAD70000636B646B7F
:040EEA005CD6FFD7FC
:100F660010EE15F0380E006E010E016EEE0EF66EE6
:0E0F76000E0EF76E000EF86E49EC02F012003F
:0C0EEE00566F6C746120617475616C00BB
:010EFA0030C7
:0D0EFB0054656D70657261747572613A0026
:100F080050696C6F746F3A204E69636F6C6173003F
:0C0F180056656C6F6369646164653A00A3
:020F24002500A6
:080F26000F07030100000000A9
:080F2E000000000000040E1F8A
:080F36001E1C18100000000051
:080F3E0000000303030300009F
:080F46001F1F1F1F0000000027
:080F4E0000001818181800003B
:080F56000000001F1F1F1F1FF8
:080F5E001F1F1F1F1F1F1F1F93
:020000040030CA
:0E000000000C1F1EFF8181FF0FC00FE00F409C
:00000001FF
